{
  "_format": "hh-sol-artifact-1",
  "contractName": "PolusPayments",
  "sourceName": "contracts/Payments.sol",
  "abi": [
    {
      "inputs": [
        {
          "internalType": "address[]",
          "name": "allowedInputs_",
          "type": "address[]"
        },
        {
          "internalType": "address",
          "name": "feesRecipient_",
          "type": "address"
        },
        {
          "internalType": "uint256",
          "name": "feePercentage_",
          "type": "uint256"
        }
      ],
      "stateMutability": "nonpayable",
      "type": "constructor"
    },
    {
      "anonymous": false,
      "inputs": [
        {
          "indexed": true,
          "internalType": "address",
          "name": "from",
          "type": "address"
        },
        {
          "indexed": false,
          "internalType": "address",
          "name": "tokenIn",
          "type": "address"
        },
        {
          "indexed": false,
          "internalType": "address",
          "name": "tokenOut",
          "type": "address"
        },
        {
          "indexed": false,
          "internalType": "address",
          "name": "recipient",
          "type": "address"
        },
        {
          "indexed": false,
          "internalType": "uint256",
          "name": "amountIn",
          "type": "uint256"
        },
        {
          "indexed": false,
          "internalType": "bytes16",
          "name": "uniqid",
          "type": "bytes16"
        }
      ],
      "name": "Action",
      "type": "event"
    },
    {
      "anonymous": false,
      "inputs": [
        {
          "indexed": true,
          "internalType": "address",
          "name": "previousOwner",
          "type": "address"
        },
        {
          "indexed": true,
          "internalType": "address",
          "name": "newOwner",
          "type": "address"
        }
      ],
      "name": "OwnershipTransferred",
      "type": "event"
    },
    {
      "inputs": [
        {
          "internalType": "address",
          "name": "input",
          "type": "address"
        }
      ],
      "name": "allowedInputs",
      "outputs": [
        {
          "internalType": "bool",
          "name": "",
          "type": "bool"
        }
      ],
      "stateMutability": "view",
      "type": "function"
    },
    {
      "inputs": [
        {
          "internalType": "uint256",
          "name": "amount",
          "type": "uint256"
        }
      ],
      "name": "calculateFee",
      "outputs": [
        {
          "internalType": "uint256",
          "name": "",
          "type": "uint256"
        }
      ],
      "stateMutability": "view",
      "type": "function"
    },
    {
      "inputs": [
        {
          "internalType": "address",
          "name": "input",
          "type": "address"
        }
      ],
      "name": "disableAllowedInput",
      "outputs": [],
      "stateMutability": "nonpayable",
      "type": "function"
    },
    {
      "inputs": [
        {
          "internalType": "address",
          "name": "input",
          "type": "address"
        }
      ],
      "name": "enableAllowedInput",
      "outputs": [],
      "stateMutability": "nonpayable",
      "type": "function"
    },
    {
      "inputs": [],
      "name": "feePercentage",
      "outputs": [
        {
          "internalType": "uint256",
          "name": "",
          "type": "uint256"
        }
      ],
      "stateMutability": "view",
      "type": "function"
    },
    {
      "inputs": [],
      "name": "owner",
      "outputs": [
        {
          "internalType": "address",
          "name": "",
          "type": "address"
        }
      ],
      "stateMutability": "view",
      "type": "function"
    },
    {
      "inputs": [],
      "name": "renounceOwnership",
      "outputs": [],
      "stateMutability": "nonpayable",
      "type": "function"
    },
    {
      "inputs": [],
      "name": "router",
      "outputs": [
        {
          "internalType": "address",
          "name": "",
          "type": "address"
        }
      ],
      "stateMutability": "pure",
      "type": "function"
    },
    {
      "inputs": [
        {
          "internalType": "address",
          "name": "token",
          "type": "address"
        },
        {
          "internalType": "address",
          "name": "recipient",
          "type": "address"
        },
        {
          "internalType": "uint256",
          "name": "amount",
          "type": "uint256"
        },
        {
          "internalType": "bytes16",
          "name": "uniqid",
          "type": "bytes16"
        }
      ],
      "name": "swapEqualInOutToken",
      "outputs": [],
      "stateMutability": "nonpayable",
      "type": "function"
    },
    {
      "inputs": [
        {
          "internalType": "address",
          "name": "tokenIn",
          "type": "address"
        },
        {
          "internalType": "address",
          "name": "tokenOut",
          "type": "address"
        },
        {
          "internalType": "address",
          "name": "recipient",
          "type": "address"
        },
        {
          "internalType": "uint256",
          "name": "amountIn",
          "type": "uint256"
        },
        {
          "internalType": "bytes16",
          "name": "uniqid",
          "type": "bytes16"
        },
        {
          "internalType": "uint24",
          "name": "poolFee",
          "type": "uint24"
        }
      ],
      "name": "swapExactInputSingleHop",
      "outputs": [
        {
          "internalType": "uint256",
          "name": "",
          "type": "uint256"
        }
      ],
      "stateMutability": "nonpayable",
      "type": "function"
    },
    {
      "inputs": [
        {
          "internalType": "address",
          "name": "newOwner",
          "type": "address"
        }
      ],
      "name": "transferOwnership",
      "outputs": [],
      "stateMutability": "nonpayable",
      "type": "function"
    },
    {
      "inputs": [
        {
          "internalType": "address",
          "name": "feesRecipient_",
          "type": "address"
        },
        {
          "internalType": "uint256",
          "name": "feePercentage_",
          "type": "uint256"
        }
      ],
      "name": "updateFeeConfiguration",
      "outputs": [],
      "stateMutability": "nonpayable",
      "type": "function"
    }
  ],
  "bytecode": "0x60806040523480156200001157600080fd5b5060405162000f4f38038062000f4f83398101604081905262000034916200015d565b6200003f33620000da565b60005b8351811015620000ae576001600360008684815181106200006757620000676200024c565b6020908102919091018101516001600160a01b03168252810191909152604001600020805460ff191691151591909117905580620000a58162000262565b91505062000042565b50600180546001600160a01b0319166001600160a01b039390931692909217909155600255506200028c565b600080546001600160a01b038381166001600160a01b0319831681178455604051919092169283917f8be0079c531659141344cd1fd0a4f28419497f9722a3daafe3b4186f6b6457e09190a35050565b634e487b7160e01b600052604160045260246000fd5b80516001600160a01b03811681146200015857600080fd5b919050565b6000806000606084860312156200017357600080fd5b83516001600160401b03808211156200018b57600080fd5b818601915086601f830112620001a057600080fd5b8151602082821115620001b757620001b76200012a565b8160051b604051601f19603f83011681018181108682111715620001df57620001df6200012a565b60405292835281830193508481018201928a841115620001fe57600080fd5b948201945b838610156200022757620002178662000140565b8552948201949382019362000203565b975062000238905088820162000140565b955050505050604084015190509250925092565b634e487b7160e01b600052603260045260246000fd5b60006000198214156200028557634e487b7160e01b600052601160045260246000fd5b5060010190565b610cb3806200029c6000396000f3fe608060405234801561001057600080fd5b50600436106100b35760003560e01c806399a5d7471161007157806399a5d74714610146578063a001ecdd14610159578063b239520114610161578063f0d74dff1461019d578063f2fde38b146101b0578063f887ea40146101c357600080fd5b80626a4a97146100b85780630bac6e69146100de57806310f65698146100f357806315fee27414610106578063715018a6146101195780638da5cb5b14610121575b600080fd5b6100cb6100c6366004610a6c565b6101dd565b6040519081526020015b60405180910390f35b6100f16100ec366004610ae5565b6105f9565b005b6100f1610101366004610b07565b610625565b6100f1610114366004610ae5565b610887565b6100f16108b0565b6000546001600160a01b03165b6040516001600160a01b0390911681526020016100d5565b6100cb610154366004610b54565b6108c4565b6002546100cb565b61018d61016f366004610ae5565b6001600160a01b031660009081526003602052604090205460ff1690565b60405190151581526020016100d5565b6100f16101ab366004610b6d565b6108e7565b6100f16101be366004610ae5565b610915565b73e592427a0aece92de3edee1f18e0157c0586156461012e565b6001600160a01b03861660009081526003602052604081205460ff166102405760405162461bcd60e51b81526020600482015260136024820152721d1bdad95b925b881b9bdd08185b1b1bddd959606a1b60448201526064015b60405180910390fd5b856001600160a01b0316876001600160a01b031614156102ad5760405162461bcd60e51b815260206004820152602260248201527f746f6b656e496e2063616e206e6f7420626520657175616c7320746f6b656e4f6044820152611d5d60f21b6064820152608401610237565b6040516323b872dd60e01b8152336004820152306024820152604481018590526001600160a01b038816906323b872dd90606401602060405180830381600087803b1580156102fb57600080fd5b505af115801561030f573d6000803e3d6000fd5b505050506040513d601f19601f820116820180604052508101906103339190610b97565b5060405163095ea7b360e01b815273e592427a0aece92de3edee1f18e0157c058615646004820152602481018590526001600160a01b0388169063095ea7b390604401602060405180830381600087803b15801561039057600080fd5b505af11580156103a4573d6000803e3d6000fd5b505050506040513d601f19601f820116820180604052508101906103c89190610b97565b5060006103d4856108c4565b60015460405163a9059cbb60e01b81526001600160a01b0391821660048201526024810183905291925089169063a9059cbb90604401602060405180830381600087803b15801561042457600080fd5b505af1158015610438573d6000803e3d6000fd5b505050506040513d601f19601f8201168201806040525081019061045c9190610b97565b5060006040518061010001604052808a6001600160a01b03168152602001896001600160a01b031681526020018562ffffff168152602001886001600160a01b0316815260200142815260200183886104b59190610bcf565b81526000602082018190526040918201525190915033907f0576c6accdd46015927a2232372f0bd5bac3fb468f725ec11e16903929ce4dea90610501908c908c908c908c908c90610be6565b60405180910390a26040805163414bf38960e01b815282516001600160a01b0390811660048301526020840151811660248301529183015162ffffff1660448201526060830151821660648201526080830151608482015260a083015160a482015260c083015160c482015260e083015190911660e482015273e592427a0aece92de3edee1f18e0157c058615649063414bf3899061010401602060405180830381600087803b1580156105b457600080fd5b505af11580156105c8573d6000803e3d6000fd5b505050506040513d601f19601f820116820180604052508101906105ec9190610c23565b9998505050505050505050565b61060161098e565b6001600160a01b03166000908152600360205260409020805460ff19166001179055565b6001600160a01b03841660009081526003602052604090205460ff166106835760405162461bcd60e51b81526020600482015260136024820152721d1bdad95b925b881b9bdd08185b1b1bddd959606a1b6044820152606401610237565b6040516323b872dd60e01b8152336004820152306024820152604481018390526001600160a01b038516906323b872dd90606401602060405180830381600087803b1580156106d157600080fd5b505af11580156106e5573d6000803e3d6000fd5b505050506040513d601f19601f820116820180604052508101906107099190610b97565b506000610715836108c4565b60015460405163a9059cbb60e01b81526001600160a01b0391821660048201526024810183905291925086169063a9059cbb90604401602060405180830381600087803b15801561076557600080fd5b505af1158015610779573d6000803e3d6000fd5b505050506040513d601f19601f8201168201806040525081019061079d9190610b97565b506001600160a01b03851663a9059cbb856107b88487610bcf565b6040516001600160e01b031960e085901b1681526001600160a01b0390921660048301526024820152604401602060405180830381600087803b1580156107fe57600080fd5b505af1158015610812573d6000803e3d6000fd5b505050506040513d601f19601f820116820180604052508101906108369190610b97565b50336001600160a01b03167f0576c6accdd46015927a2232372f0bd5bac3fb468f725ec11e16903929ce4dea8687878787604051610878959493929190610be6565b60405180910390a25050505050565b61088f61098e565b6001600160a01b03166000908152600360205260409020805460ff19169055565b6108b861098e565b6108c260006109e8565b565b6000612710600254836108d79190610c3c565b6108e19190610c5b565b92915050565b6108ef61098e565b600180546001600160a01b0319166001600160a01b039390931692909217909155600255565b61091d61098e565b6001600160a01b0381166109825760405162461bcd60e51b815260206004820152602660248201527f4f776e61626c653a206e6577206f776e657220697320746865207a65726f206160448201526564647265737360d01b6064820152608401610237565b61098b816109e8565b50565b6000546001600160a01b031633146108c25760405162461bcd60e51b815260206004820181905260248201527f4f776e61626c653a2063616c6c6572206973206e6f7420746865206f776e65726044820152606401610237565b600080546001600160a01b038381166001600160a01b0319831681178455604051919092169283917f8be0079c531659141344cd1fd0a4f28419497f9722a3daafe3b4186f6b6457e09190a35050565b80356001600160a01b0381168114610a4f57600080fd5b919050565b80356001600160801b031981168114610a4f57600080fd5b60008060008060008060c08789031215610a8557600080fd5b610a8e87610a38565b9550610a9c60208801610a38565b9450610aaa60408801610a38565b935060608701359250610abf60808801610a54565b915060a087013562ffffff81168114610ad757600080fd5b809150509295509295509295565b600060208284031215610af757600080fd5b610b0082610a38565b9392505050565b60008060008060808587031215610b1d57600080fd5b610b2685610a38565b9350610b3460208601610a38565b925060408501359150610b4960608601610a54565b905092959194509250565b600060208284031215610b6657600080fd5b5035919050565b60008060408385031215610b8057600080fd5b610b8983610a38565b946020939093013593505050565b600060208284031215610ba957600080fd5b81518015158114610b0057600080fd5b634e487b7160e01b600052601160045260246000fd5b600082821015610be157610be1610bb9565b500390565b6001600160a01b039586168152938516602085015291909316604083015260608201929092526001600160801b0319909116608082015260a00190565b600060208284031215610c3557600080fd5b5051919050565b6000816000190483118215151615610c5657610c56610bb9565b500290565b600082610c7857634e487b7160e01b600052601260045260246000fd5b50049056fea2646970667358221220dc47b9eefe007ec023fd7a2402193debe7835a5d14f78d740642ea7d6764fc8264736f6c63430008090033",
  "linkReferences": {},
  "deployedLinkReferences": {}
}